:020000040000fa
:04025c002e2200004e
:020000040000fa
:040210002e2200009a
:020000040000fa
:040274002e22000036
:020000040000fa
:040334002e22000075
:020000040000fa
:04035c002e2200004d
:020000040000fa
:040270002e2200003a
:020000040000fa
:04022c002e2200007e
:020000040000fa
:04023c002e2200006e
:020000040000fa
:0402bc002e220000ee
:020000040000fa
:0402c0002e220000ea
:020000040000fa
:0402c4002e220000e6
:020000040000fa
:0402c8002e220000e2
:020000040000fa
:040280002e2200002a
:020000040000fa
:040284002e22000026
:020000040000fa
:04039c002e2200000d
:020000040000fa
:040228002e22000082
:020000040000fa
:040278002e22000032
:020000040000fa
:04029c002e2200000e
:020000040000fa
:0402fc002e220000ae
:020000040000fa
:040300002e220000a9
:020000040000fa
:040260002e2200004a
:020000040000fa
:040264002e22000046
:020000040000fa
:04027c002e2200002e
:020000040000fa
:040288002e22000022
:020000040000fa
:0402b0002e220000fa
:020000040000fa
:0402b4002e220000f6
:020000040000fa
:0402b8002e220000f2
:020000040000fa
:040238002e22000072
:020000040000fa
:0402e0002e220000ca
:020000040000fa
:0402e4002e220000c6
:020000040000fa
:0402e8002e220000c2
:020000040000fa
:0402f4002e220000b6
:020000040000fa
:0402f8002e220000b2
:020000040000fa
:040304002e220000a5
:020000040000fa
:040308002e220000a1
:020000040000fa
:04030c002e2200009d
:020000040000fa
:040310002e22000099
:020000040000fa
:040314002e22000095
:020000040000fa
:040318002e22000091
:020000040000fa
:04031c002e2200008d
:020000040000fa
:040324002e22000085
:020000040000fa
:040328002e22000081
:020000040000fa
:040338002e22000071
:020000040000fa
:04033c002e2200006d
:020000040000fa
:040340002e22000069
:020000040000fa
:040344002e22000065
:020000040000fa
:04034c002e2200005d
:020000040000fa
:040350002e22000059
:020000040000fa
:040354002e22000055
:020000040000fa
:040358002e22000051
:020000040000fa
:040360002e22000049
:020000040000fa
:040364002e22000045
:020000040000fa
:040368002e22000041
:020000040000fa
:040348002e22000061
:020000040000fa
:04026c002e2200003e
:020000040000fa
:0402f0002e220000ba
:020000040000fa
:04037c002e2200002d
:020000040000fa
:040218002e22000092
:020000040000fa
:040230002e2200007a
:020000040000fa
:040240002e2200006a
:020000040000fa
:04028c002e2200001e
:020000040000fa
:040290002e2200001a
:020000040000fa
:0402cc002e220000de
:020000040000fa
:0402d0002e220000da
:020000040000fa
:0402d4002e220000d6
:020000040000fa
:0402d8002e220000d2
:020000040000fa
:040398002e22000011
:020000040000fa
:04020c002e2200009e
:020000040000fa
:0402dc002e220000ce
:020000040000fa
:040320002e22000089
:020000040000fa
:040208002e220000a2
:020000040000fa
:04021c002e2200008e
:020000040000fa
:040220002e2200008a
:020000040000fa
:040224002e22000086
:020000040000fa
:040268002e22000042
:020000040000fa
:0402ec002e220000be
:020000040000fa
:040378002e22000031
:020000040000fa
:04024c002e2200005e
:020000040000fa
:040250002e2200005a
:020000040000fa
:0402a8002e22000002
:020000040000fa
:0402ac002e220000fe
:020000040000fa
:040390002e22000019
:020000040000fa
:040394002e22000015
:020000040000fa
:040214002e22000096
:020000040000fa
:040234002e22000076
:020000040000fa
:040244002e22000066
:020000040000fa
:040248002e22000062
:020000040000fa
:040294002e22000016
:020000040000fa
:040298002e22000012
:020000040000fa
:04032c002e2200007d
:020000040000fa
:040254002e22000056
:020000040000fa
:040258002e22000052
:020000040000fa
:040330002e22000079
:020000040000fa
:0402a0002e2200000a
:020000040000fa
:0402a4002e22000006
:020000040000fa
:04036c002e2200003d
:020000040000fa
:040370002e22000039
:020000040000fa
:040374002e22000035
:020000040000fa
:040384002e22000025
:020000040000fa
:040388002e22000021
:020000040000fa
:04038c002e2200001d
:020000040000fa
:040380002e22000029
:020000040000fa
:080000001011040000000000d3
:020000040000fa
:102220000fe820000eff27000e01880000000000cc
:10223000000020000000e000020032000001200049
:102240002002880014000700810007000000e00061
:1022500003003a0040212200010020000200370064
:102260000000200001002000810f700001003200fa
:1022700014000700000020000000e000020032000f
:1022800000000200000000005821020000000000d1
:102290000040da000000fe004440a900a006200033
:1022a0000000e000030032000020200090018800c0
:1022b0004440a800000006008a1f78008b1f7800a9
:1022c00000000600a1028800800478000000eb00f6
:1022d0001f003700e284440054a0b4009905ba00fe
:1022e000e284440054a0b4009906ba00e284440099
:1022f00054a0b4000006eb00476fde00fd07b200fb
:10230000ae018800636ce10003003a00eaff0700b9
:102310000000eb000e003700606ce10008003a009e
:10232000004deb000a05e800020039003420ec0003
:102330000af0a0008b05e900f9ff3e000400370019
:102340006168e100010032000086eb000b0007002d
:1023500019c7ba001905ba000e04e00003003a00dc
:102360000a00e000dbff3a0000000600fe07b200b2
:10237000ae0288008a047800f5ff37000cd0a30075
:10238000e20f4d001c00390089027800354dba007b
:102390000a05e800020039003420ec000af0a00031
:1023a0008b05e9000f003200254dba000a05e80050
:1023b000020039003420ec000af0a0008b05e9008f
:1023c000080032000c00e0000600320015cdba0013
:1023d0000a05e800020039003420ec000af0a000f1
:1023e0008b05e9008984e80054a0b4000b00e000ec
:1023f000e2ff3a00000006009902ba00055d78008d
:102400008b05e900f7ff3200c82ade00055d780081
:102410008b05e900f3ff32000c00e000f1ff320011
:1024200019ddba00eeff3700d21f040000000000e3
:10243000961b0400000000000020040000000000c3
:10244000d212040000000000141b04000000000071
:042450000000050083
:020000040000fa
:1020000010110400000000002e2204000000000057
:102010002e220400000000002e2204000000000018
:102020002e220400000000002e2204000000000008
:102030002e220400000000002e22040000000000f8
:102040002e220400000000002e22040000000000e8
:102050002e220400000000002e22040000000000d8
:102060002e220400000000002e22040000000000c8
:102070002e220400000000002e22040000000000b8
:102080002e220400000000002e22040000000000a8
:102090002e220400000000002e2204000000000098
:1020a0002e220400000000002e2204000000000088
:1020b0002e220400000000002e2204000000000078
:1020c0002e220400000000002e2204000000000068
:1020d0002e220400000000002e2204000000000058
:1020e0002e220400000000002e2204000000000048
:1020f0002e220400000000002e2204000000000038
:102100002e220400000000002e2204000000000027
:102110002e220400000000002e2204000000000017
:102120002e220400000000002e2204000000000007
:102130002e220400000000002e22040000000000f7
:102140002e220400000000002e22040000000000e7
:102150002e220400000000002e22040000000000d7
:102160002e220400000000002e22040000000000c7
:102170002e220400000000002e22040000000000b7
:102180002e220400000000002e22040000000000a7
:102190002e220400000000002e2204000000000097
:1021a0002e220400000000002e2204000000000087
:1021b0002e220400000000002e2204000000000077
:1021c0002e220400000000002e2204000000000067
:1021d0002e22040000000000e8210400000000009e
:1021e0002e220400000000002e2204000000000047
:1021f0002e220400000000002e2204000000000037
:102200002e220400000000002e2204000000000026
:102210002e220400000000002e2204000000000016
:020000040000fa
:1000080004100000081000000c1000001010000080
:10001800141000000c1100000c1100000c1100005d
:10002800181000001c100000201000002410000010
:100038000c110000281000002c10000030100000e7
:1000480034100000381000003c1000004010000080
:1000580044100000481000000c1100000c110000b2
:100068004c10000050100000541000005810000000
:100078005c1000000c11000060100000641000000b
:100088000c110000681000006c10000070100000d7
:1000980074100000781000007c1000008010000030
:1000a80084100000881000000c1100000c110000e2
:1000b8000c1100008c10000090100000941000003b
:1000c800981000009c100000a0100000a410000070
:1000d800a8100000ac1000000c1100000c1100006a
:1000e8000c110000b0100000b41000000c1100004a
:1000f8000c110000b8100000bc1000000c1100002a
:100108000c1100000c1100000c1100000c11000073
:100118000c1100000c110000c01000000c110000b0
:100128000c110000c4100000c8100000cc10000022
:100138000c1100000c1100000c1100000c11000043
:10014800d01000000c1100000c1100000c11000070
:100158000c110000d41000000c1100000c1100005c
:100168000c110000d8100000dc100000e0100000a6
:10017800e4100000e8100000ec100000f01000008f
:10018800f4100000f8100000fc100000001100003e
:1001980004110000081100000c1100000c110000ef
:1001a8000c1100000c1100000c1100000c110000d3
:1001b8000c1100000c1100000c1100000c110000c3
:1001c8000c1100000c1100000c1100000c110000b3
:1001d8000c1100000c1100000c1100000c110000a3
:1001e8000c1100000c1100000c1100000c11000093
:0801f8000c1100000c110000c5
:020000040000fa
:102454001201000000020000000000000040000023
:102464006666000003000000000000000102000096
:102474000001000009020000120000000101000038
:1024840000a0000032090000040000000000000069
:10249400ff000000ff0000003c9200000403000065
:1024a400090400001a0300004f0000006c00000043
:1024b400690000006e0000002000000043000000de
:1024c4006f0000006c0000006c000000650000005c
:1024d40067000000650000002003000050000000b9
:1024e40049000000430000003200000034000000f6
:1024f400460000004a0000003100000032000000e5
:1025040038000000470000004200000032000000d4
:102514003000000036000000509200005492000089
:042524006e920000b3
:020000040000fa
:102528000600fa0040479800a04a200010079800cb
:10253800ce409000014f7800130037001e80fb004a
:10254800000040009e009000008040008000eb00ea
:10255800010878001e80fb008000400080ca20002f
:10256800008040008000eb00010878001e80fb001e
:102578008000400080cc2000008040008000eb00fc
:10258800010878001e4fe8001e407800ef4f500009
:10259800eaff36000080fa00000006000000fa009a
:1025a800c0c92000104078000080fb00b0248800db
:1025b800b02480000000e00003003a0010c0b3001f
:1025c80010e8b7000200370020c0b30010e8b700d9
:1025d8000000eb00406588000080fa00000006005b
:1025e8000000fa009ec0a9009424a8009624ef00d9
:1025f800f00f2000702488009424a9000040eb000c
:10260800c7ff0700d00020005025880000e0200008
:1026180001c4b30001487800a0c1200010708800f0
:1026280010e0200081c8b30001487800a0c5200050
:102638003070880050e0200081c0b3000148780065
:10264800a624ef00a824ef0000e020004800de00e8
:10265800c02488008644a80086e4a8008804a8004e
:1026680094a4a9000d68ef001068ef0010c0b30033
:102678000ee8b700a0c9200080c0eb000148780030
:10268800b0c9200080c0eb00014878000000eb00d2
:10269800206588000000eb0030658800000000001d
:1026a800a124800000042000008060000000e000f9
:1026b800fbff3a00f00f200060248800f00f200094
:1026c800802488008ec0a9009ec0a8000080fa005f
:1026d800000006000400fa00502480006200600038
:1026e8000000e00005003200f00f20007024880090
:1026f8002000200050248800ba00370050248000b1
:10270800640060000000e000030032004000200088
:1027180050248800b3003700502480007000600007
:102728000000e0000300320000012000502488006f
:10273800ac003700512480000002200000806000b7
:102748000000e0000300320000022000502488004e
:10275800a400370051248000000820000080600099
:102768000000e00003003200000820005024880028
:102778009c00370050248000610060000000e000e9
:10278800270032000d68ef000800370080002000a5
:102798005024880000000000000000000000000035
:1027a800000000000000000000000000502480002d
:1027b800680060000000e000f4ff3a000040eb0011
:1027c80057ff070000e0200001c4b300014878006b
:1027d800a0c120001070880010e0200081c8b3005c
:1027e80001487800a0c520003070880050e0200023
:1027f80081c0b300014878009624ef00f00f200054
:1028080050248800d00020005025880010c0b30054
:1028180010e8b70010c0b3000ee8b7007100370029
:1028280050248000680060000000e0006d00320065
:10283800902480004300de00c200dd0000e020009c
:10284800008f40001e0078001040900001e8b7009b
:102858001e0078001040780000e8b7001e007800dd
:1028680010009000104088009024800000407800fc
:102878000fe8b70080002000502488000c68ef00a3
:1028880001c8bf008080fb00c003200000806000fa
:1028980041022000810f500008003200410320004f
:1028a800810f500003003200e40f5000170032007f
:1028b8003d0037004e0007003b0037000fc8bf003f
:1028c8000080fb004400de00204798002e40900066
:1028d8000080fb008000400080ca2000008040008b
:1028e800100078000000e0002e0032002e4090001a
:1028f8000080fb008000400080ca2000008040006b
:102908001000780000000100270037000fc8bf0042
:102918000080fb004400de00204798002e40900015
:102928000080fb008000400080cc20000080400038
:10293800100078000000e000070032002e409000f0
:102948000080fb008000400080cc20000080400018
:1029580010007800000001002e4090000004e00004
:1029680011003a00206580000000e0000e003a00e7
:1029780000e0200001c4b3000148780010e0200006
:1029880081c8b3000148780040e020008040eb0097
:102998000148780050e0200081ccb300014878005d
:1029a80001003700000000000cc8bf000080fb00d9
:1029b80061006000004078000004e0000900320077
:1029c80000e0200001c4b3000148780050e0200076
:1029d80041c8b3000148780010e0200041c8b300a6
:1029e800014878008ec0a9000080fa0000000600a7
:1029f8000200fa0011408000010f78001e007800e4
:102a08009040780040802000014878001e0fe800c0
:102a18001e00780090407800408020001140980007
:102a28001e0fe8001e0078009040780040802000cb
:102a3800214098001e0fe8001e00780090407800a2
:102a480040802000314098001e0fe8001e007800ea
:102a58009040780040802000414098001e0fe80018
:102a68001e00780090407800408020005140980077
:102a78001e0fe8001e00780090407800408020007b
:102a8800614098001e0fe8001e0078009040780012
:102a980040802000714098001e0fe80000e02000f0
:102aa80001c4b3000148780050e0200081c0b300a1
:102ab8000148780040802000104078000004e000c1
:102ac8000600350040802000300090000000e00043
:102ad8000200320080ccb3000100370080c8b30088
:102ae80011e020008048780094a4a900a0c9200023
:102af80080c0eb0001487800b0c9200080c0eb001e
:102b0800014878000000eb00206588000000eb0019
:102b18003065880040802000104078008080fb00ed
:102b2800000620000080600001022000810f500094
:102b38001100320001042000810f5000040032000f
:102b48000000e00016003a001a00070017003700de
:102b5800c04080000000e00003003200c040800058
:102b680000000100110037000cc8bf000004a000dd
:102b78000ce8b7000d003700b04080000000e0000e
:102b880003003200b0408000000001000700370059
:102b98000cc8bf000004a0000ce8b7000300370011
:102ba8000cc8bf000004a0000ce8b7000080fa00c1
:102bb800000006000600fa00408020001040900047
:102bc8000080fb00e60f5000ba013200e60f50000b
:102bd8000c003c00e10f5000c1003200e10f500032
:102be80003003c000000e0001200320085023700bc
:102bf800e30f5000ba003200e50f50008b0132009d
:102c080080023700e90f500020023200e90f50001f
:102c180003003c00e80f500011023200790237002f
:102c2800ea0f50003b023200eb0f50005402320012
:102c38007402370040802000104078000080fb00bc
:102c48007f006000e10f500013003200e20f5000d7
:102c5800320032000000e0009c003a003070800032
:102c6800e1802000914078000148780030708000b1
:102c78000000e8008040eb000148780040e02000b8
:102c880021c0b3000148780050e0200081ccb30097
:102c9800014878009100370010c8bf000080fb0091
:102ca800e20f500003003200e30f5000050032002d
:102cb800190037000cc8bf000004a0000ce8b700da
:102cc8001500370040802000404090000004e000dc
:102cd8000e003a00307080008040eb000148780018
:102ce800307080000000e8008040eb000148780068
:102cf80040e0200021c0b3000148780050e02000e7
:102d080081ccb30001487800030037000cc8bf002d
:102d18000004a0000ce8b7007000370010c8bf001e
:102d28000080fb00e20f500003003200e30f500068
:102d380029003200610037004080200040409000a8
:102d48000080fb006f0060000000e0001e003a00f9
:102d58003170800040802000404090000004e00076
:102d680007003d0050e02000104078000080fb0084
:102d7800640060004280de000040780006003700f2
:102d880010e02000104078000080fb006400600024
:102d98004280de0000407800804878003070800073
:102da8000000e8008040eb000148780040e0200087
:102db80021c0b3000148780050e0200081ccb30066
:102dc80001487800030037000cc8bf000004a000c9
:102dd8000ce8b7003c003700a04a2000000f78003c
:102de80040802000404090006f40600020479800dd
:102df8002e4090000080fb0000004000800078001a
:102e080040802000404090000000fb004f00de00a2
:102e180001007000c200dd0000e0200000804000da
:102e2800200798002e4090000080fb000000400022
:102e38001e00400090007800408020004040900034
:102e48000004e00002003d004000200001003700bf
:102e580080002000008060000000e00013003200c5
:102e680030708000ae009000914090008180fb009f
:102e7800e4806000c288de00814078000148780064
:102e8800307080000000e8008040eb0001487800c6
:102e980040e0200021c0b3000148780050e0200045
:102ea80081ccb30001487800030037000cc8bf008c
:102eb8000004a0000ce8b700030037000cc8bf00ee
:102ec8000004a0000ce8b700040037000cc8bf00dd
:102ed8000004a0000ce8b700cf013700ce0137008e
:102ee80040802000104078000080fb007f006000d8
:102ef8000000e00003003200e20f50001c00320026
:102f0800c500370040802000204090000080fb0072
:102f1800e10f500012003a0040802000104090005d
:102f2800e14f500004003a000ec8bf000004a100a1
:102f38000ee8b700030037000ec8bf000004a00069
:102f48000ee8b70040e020008040eb000148780020
:102f580050e0200081ccb30001487800030037001e
:102f68000cc8bf000004a0000ce8b700ae00370092
:102f780010c8bf000080fb00e20f500003003200c1
:102f8800e30f5000120032009f00370040802000fd
:102f9800404090000080fb006f0060000000e000ef
:102fa80007003a0040e020008040eb00014878002c
:102fb80050e0200081ccb3000148780003003700be
:102fc8000cc8bf000004a0000ce8b700910037004f
:102fd800a04a2000000f7800408020004040900068
:102fe8006f406000204798002e4090000004e000e9
:102ff800790032002e4090000080fb000000400065
:103008008000780040802000404090000000fb00d5
:103018004f00de0001007000c200dd0000e020006b
:103028000080400020079800408020004040900029
:103038000004e00030003d002e4090000080fb00be
:10304800000040001e00400010007800640060008e
:103058000000e00024003200408020001040900072
:10306800e14f500019003a002e4090000080fb000c
:10307800000040009e0040002e4090000080fb00b1
:10308800000040001e00400010017800d00f200012
:1030980000006100800878002e0090001040900029
:1030a800804078000124a1002e0090001140980073
:1030b8002e00900010409000804078000164a0002d
:1030c8002e00900011409800430037002e00900019
:1030d80010409000804078000124a0002e0090004d
:1030e800114098003c0037000cc8bf000004a00045
:1030f8000ce8b700380037002e4090000080fb0035
:10310800000040001e0040001000780068006000c9
:103118000000e0002d0032004080200010409000a8
:10312800e14f500019003a002e4090000080fb004b
:10313800000040009e0040002e4090000080fb00f0
:10314800000040001e00400010017800d00f200051
:1031580000006100800878002e0090001040900068
:10316800804078000124a1002e00900011409800b2
:103178002e00900010409000804078000164a1006b
:103188002e00900011409800060037002e00900095
:1031980010409000804078000124a0002e0090008c
:1031a800114098004080200010409000e14f5000ee
:1031b80002003a0080c8b3000100370040c8b300dd
:1031c800ae00900090409800030037000cc8bf0084
:1031d8000004a0000ce8b7000cc8bf000080fb008a
:1031e800610060000000e00006003a0040e02000b6
:1031f8008040eb000148780050e0200081ccb3000b
:1032080001487800030037000cc8bf000004a00084
:103218000ce8b700040037000cc8bf000004a00089
:103228000ce8b700fc003700fb00370040802000a6
:10323800204090000004e00004003d000cc8bf00de
:103248000004a0000ce8b700f3003700408020001d
:1032580090407800a0c920000148780040802000f4
:1032680090409000b0c920000148780040802000bc
:1032780010009000e064880040802000200090004a
:10328800f0648800408020003000900000658800cd
:10329800202d21004065880040e020008040eb00a0
:1032a8000148780050e0200081ccb3000148780044
:1032b800d90037004080200090407800a0c9200045
:1032c800014878004080200090409000b0c920005c
:1032d800014878004080200010009000e0648800d9
:1032e8004080200020009000f0648800408020008a
:1032f8003000900000658800408020003040900039
:103308000080fb00e20f50000b003200e30f50007a
:1033180024003200e10f500037003a00a0222900b3
:103328001065880010658000104078000080fb0060
:103338002065880039003700408020002040900038
:103348000004e00013003a00408020002040900074
:103358000080fb0080004000e0242900008040003d
:103368001000780010658800106580000080e80073
:103378009040780040ca200001487800106580001d
:10338800630040009040780050ca2000014878004f
:10339800220037000cc8bf000004a0000ce8b700ea
:1033a8001e0037004080200020409000e34f50006e
:1033b8000d003e0040802000204090000080fb006f
:1033c80080004000e02829000080400010007800bc
:1033d8001065880010658000104078000080fb00b0
:1033e800206588000d0037000cc8bf000004a0004d
:1033f8000ce8b70009003700a04080000000e0009a
:1034080003003200a04080000000010003003700e4
:103418000cc8bf000004a0000ce8b7000cc8bf002f
:103428000080fb00610060000000e00079003a00c5
:1034380040b121004065880040802000b000900025
:1034480020658000808f50000300310040802000fc
:103458003000900020658800710007006e0037007a
:1034680030708000d18020009140780001487800b9
:1034780040e0200011c0b3000148780050e020006f
:1034880081ccb300014878006300370040802000f9
:1034980020409000e14f50001a003e0010c0b300d9
:1034a8001ffc070040802000204090000de8b70076
:1034b8000dc8bf000080fb000000e00003003a00d8
:1034c80020c0b30010e8b7000700370030c0b300d1
:1034d80010e8b700904080000000e00002003200d1
:1034e800904080000000010040e020008040eb0098
:1034f8000148780050e0200081ccb30001487800f2
:10350800450037000cc8bf000004a0000ce8b70055
:103518004100370010c8bf000080fb00e30f5000d7
:1035280013003a0040802000404090000004e00072
:103538000a003a00307080008040eb0001487800b3
:1035480040e0200011c0b3000148780050e020009e
:1035580081ccb30001487800030037000cc8bf00d5
:103568000004a0000ce8b700000000002a003700a3
:103578000cc8bf000004a0000ce8b7002600370004
:1035880010c8bf000080fb00e30f500019003a008c
:1035980040802000404090000004e00010003a0005
:1035a80040802000204090000080fb000000e000e8
:1035b80007003a0040e020008040eb000148780016
:1035c80050e0200081ccb3000148780007003700a4
:1035d8000cc8bf000004a0000ce8b70003003700c7
:1035e8000cc8bf000004a0000ce8b70000000000f1
:1035f800090037000cc8bf000004a0000ce8b700a1
:10360800050037000cc8bf000004a0000ce8b70094
:1036180001003700000000000080fa0000000600ea
:103628000200fa0021658000f0032000808f50001e
:1036380005003e0020658000004f78000000eb0088
:10364800206588000500370000c4b300004f7800eb
:10365800206580000004b100206588000040eb0070
:10366800104798000c003700317080001e40900011
:103678000080fb00808040001065800010417800c9
:10368800824878000000e800106588001e4090001d
:103698000040e800104798001e4090009e4f5000e0
:1036a800f1ff390040e020001e48780050e020007b
:1036b8001040780000c0ea0002c4b30082406000f5
:1036c80080c8b30000c070008040780050e020003f
:1036d80001487800206580000000e0000f003a00f3
:1036e800306580000000e000020032003065800094
:1036f80000000100a0c9200080c0eb00014878004c
:10370800b0c9200080c0eb00014878000000eb0041
:10371800306588000000eb00406588000080fa00f2
:10372800000006000200fa000040eb00004f78009d
:103738000900370010658000127080009e80fb0031
:103748008100410091407800014878000000e800bd
:10375800106588001e4fe80000e020001040780047
:103768009e4f5000f3ff3e002165800000e02000de
:10377800104078000080fb00008050002065880021
:10378800206580000000e0000e00320000e020000c
:1037980001c4b3000148780010e020001040780010
:1037a80000c0ea0002c4b3008240600080c8b300d1
:1037b80000c070008040780010e0200001487800c8
:1037c8000f003700306580000000e0000200320082
:1037d8003065800000000100a0c9200080c0eb0017
:1037e80001487800b0c9200080c0eb00014878008b
:1037f8000000eb00306588000000eb0040668800a0
:103808000080fa00000006000000fa00d8a2a90013
:10381800daa2a9000080fa00000006000400fa00fd
:10382800004f78001147980022479800daa2a800b4
:103838000000000000000000000000000000000080
:10384800000000000170a600daa2a9000000000034
:103858000000000000000000000000000000000060
:10386800daa2a9000000000000000000000000002b
:103878000000000000000000daa2a800000000001c
:103888000000000000000000000000000000000030
:103898000160a600daa2a9000000000000000000f4
:1038a800000000000000000000000000daa2a900eb
:1038b8000000000000000000000000000000000000
:1038c80000000000daa2a8000000000000000000cc
:1038d8000000000000000000000000000150a600e9
:1038e800daa2a900000000000000000000000000ab
:1038f8000000000000000000daa2a900000000009b
:1039080000000000000000000000000000000000af
:10391800daa2a8000000000000000000000000007b
:1039280000000000000000000140a600daa2a90083
:10393800000000000000000000000000000000007f
:1039480000000000daa2a90000000000000000004a
:10395800000000000000000000000000daa2a8003b
:10396800000000000000000000000000000000004f
:10397800000000000130a600daa2a9000000000043
:10398800000000000000000000000000000000002f
:10399800daa2a900000000000000000000000000fa
:1039a8000000000000000000daa2a80000000000eb
:1039b80000000000000000000000000000000000ff
:1039c8000120a600daa2a900000000000000000003
:1039d800000000000000000000000000daa2a900ba
:1039e80000000000000000000000000000000000cf
:1039f80000000000daa2a80000000000000000009b
:103a08000000000000000000000000000110a600f7
:103a1800daa2a90000000000000000000000000079
:103a28000000000000000000daa2a9000000000069
:103a3800000000000000000000000000000000007e
:103a4800daa2a8000000000000000000000000004a
:103a580000000000000000000100a600daa2a90092
:103a6800000000000000000000000000000000004e
:103a780000000000daa2a900000000000000000019
:103a8800000000000000000000000000daa2a8000a
:103a9800000000000000000000000000000000001e
:103aa800000000000070a600daa2a90000000000d3
:103ab80000000000000000000000000000000000fe
:103ac800daa2a900000000000000000000000000c9
:103ad8000000000000000000daa2a80000000000ba
:103ae80000000000000000000000000000000000ce
:103af8000060a600daa2a900000000000000000093
:103b0800000000000000000000000000daa2a90088
:103b1800000000000000000000000000000000009d
:103b280000000000daa2a800000000000000000069
:103b38000000000000000000000000000050a60087
:103b4800daa2a90000000000000000000000000048
:103b58000000000000000000daa2a9000000000038
:103b6800000000000000000000000000000000004d
:103b7800daa2a80000000000000000000000000019
:103b880000000000000000000040a600daa2a90022
:103b9800000000000000000000000000000000001d
:103ba80000000000daa2a9000000000000000000e8
:103bb800000000000000000000000000daa2a800d9
:103bc80000000000000000000000000000000000ed
:103bd800000000000030a600daa2a90000000000e2
:103be80000000000000000000000000000000000cd
:103bf800daa2a90000000000000000000000000098
:103c08000000000000000000daa2a8000000000088
:103c1800000000000000000000000000000000009c
:103c28000020a600daa2a9000000000000000000a1
:103c3800000000000000000000000000daa2a90057
:103c4800000000000000000000000000000000006c
:103c580000000000daa2a800000000000000000038
:103c68000000000000000000000000000010a60096
:103c7800daa2a90000000000000000000000000017
:103c88000000000000000000daa2a9000000000007
:103c9800000000000000000000000000000000001c
:103ca800daa2a800000000000000000000000000e8
:103cb80000000000000000000000a600daa2a90031
:103cc80000000000000000000000000000000000ec
:103cd80000000000daa2a9000000000000000000b7
:103ce800000000000000000000000000daa2a800a8
:103cf80000000000000000000000000000000000bc
:103d0800000000000270a600daa2a900000000006e
:103d1800000000000000000000000000000000009b
:103d2800daa2a90000000000000000000000000066
:103d38000000000000000000daa2a8000000000057
:103d4800000000000000000000000000000000006b
:103d58000260a600daa2a90000000000000000002e
:103d6800000000000000000000000000daa2a90026
:103d7800000000000000000000000000000000003b
:103d880000000000daa2a800000000000000000007
:103d98000000000000000000000000000250a60023
:103da800daa2a900000000000000000000000000e6
:103db8000000000000000000daa2a90000000000d6
:103dc80000000000000000000000000000000000eb
:103dd800daa2a800000000000000000000000000b7
:103de80000000000000000000240a600daa2a900be
:103df80000000000000000000000000000000000bb
:103e080000000000daa2a900000000000000000085
:103e1800000000000000000000000000daa2a80076
:103e2800000000000000000000000000000000008a
:103e3800000000000230a600daa2a900000000007d
:103e4800000000000000000000000000000000006a
:103e5800daa2a90000000000000000000000000035
:103e68000000000000000000daa2a8000000000026
:103e7800000000000000000000000000000000003a
:103e88000220a600daa2a90000000000000000003d
:103e9800000000000000000000000000daa2a900f5
:103ea800000000000000000000000000000000000a
:103eb80000000000daa2a8000000000000000000d6
:103ec8000000000000000000000000000210a60032
:103ed800daa2a900000000000000000000000000b5
:103ee8000000000000000000daa2a90000000000a5
:103ef80000000000000000000000000000000000ba
:103f0800daa2a80000000000000000000000000085
:103f180000000000000000000200a600daa2a900cc
:103f28000000000000000000000000000000000089
:103f380000000000daa2a900000000000000000054
:103f48000000000000000000000000000080fa00ef
:103f5800000006000400fa0010079800ff3ffc006c
:103f68000000eb00000f7800050037000041eb006f
:103f78008040eb000040eb0028fe07001e0fe80021
:103f88001e0090009e007800808f5000f7ff3900d7
:103f98005220ef000080fa00000006000200fa003c
:103fa800ff3ffc000000eb00000f78000c0037001a
:103fb8001e80e800a1812000614178001e00e80011
:103fc800a1812000e1407800a08120001e0040006f
:103fd8001040780011fe07009e007800638f4000b3
:103fe800006580009e0f5000f1ff3e005220ef0058
:103ff8000080fa00000006000200fa00408020005d
:10400800104090000080fb00e30f50004f0032008a
:10401800e30f500007003c00e10f5000220032007f
:10402800e10f500034003c000000e00008003200be
:1040380098003700e50f500061003200e50f50008e
:104048004e003500e60f50006e0032009100370038
:10405800e1168000000820000080600000f0a70042
:104068000000ea000000e9004f00de000040780090
:104078000080fb00610060004700dd00e116800061
:104088000170a10001007000e016880040e02000e7
:104098008040eb000148780050e0200081ccb3005c
:1040a800014878007e0037006017800061006000da
:1040b80000f0a7000000ea000000e9004f00de0061
:1040c800004078000080fb006100600061178000fc
:1040d8000100a100010070006017880040e0200086
:1040e8008040eb000148780050e0200081ccb3000c
:1040f800014878006a00370060178000620060009d
:1041080000f0a7000000ea000000e9004f00de0010
:10411800004078000080fb00610060000000400063
:10412800611780000110a10001007000601788006d
:1041380040e020008040eb000148780050e020007b
:1041480081ccb300014878005500370030708000fa
:1041580091168000cf08de00814078000148780081
:1041680040e0200011c0b3000148780050e0200072
:1041780081ccb300014878004900370030708000d6
:1041880092168000010021008100610001f0a70063
:104198008100ea008100ea00cf08de008140780053
:1041a8000148780040e0200011c0b30001487800c1
:1041b80050e0200081ccb300014878003800370077
:1041c80030708000521680000100210081006100db
:1041d80001f0a7008100ea008100ea00cf08de00b4
:1041e800814078000148780040e0200011c0b30009
:1041f8000148780050e0200081ccb30001487800e5
:104208002700370040802000b000900000402000c8
:10421800808f5000040036000cc8bf000004a000c6
:104228000ce8b7001e00370040802000904078005e
:10423800a0c92000014878004080200090409000ec
:10424800b0c920000148780040802000100090008c
:10425800e06488004080200020009000f06488001e
:1042680040802000300090000065880040802000d9
:104278003000900020658800a0812000106588002b
:1042880020fd21003065880060b921004066880063
:10429800030037000cc8bf000004a0000ce8b700fa
:1042a8000080fa00000006000000fa00090007007c
:1042b80055fd070000002200c0408800c8f807002c
:1042c8000000000010c8bf00e34f5000fdff3a0097
:1042d800ffff37000000fa0000102000203a880095
:1042e800d8a2a800d882a800e882a800e8a2a8005e
:1042f800c9e2a800e862a800d902a800d962a8000b
:10430800d922a800d942a800d802a800d822a8001b
:10431800d842a800d862a800c8a2a800c882a800ed
:10432800c862a800c842a800c822a800c802a800fd
:10433800f003200010278800e424ef00e624ef00b3
:10434800ea24ef00ec24ef00000e2000001988009a
:104358002223ef0000c4200020198800500020000c
:104368004019880021e3a800d8e2a900dce2a900ee
:10437800e802a900ec02a900e822a900ec22a900a1
:10438800d1e2a800d182a800c982a8000080fa0062
:10439800000006000200fa00000f78009e00780076
:1043a800411988002023a80000000000001980009f
:1043b800610060000000e000fcff3200001880008f
:0843c8000080fa00000006006d
:020000040000fa
:1043d0003600f800809fbe00829fbe00849fbe0012
:1043e000869fbe003200f8003400f8001000200064
:1043f000a001880000202000900188000000fa0041
:10440000b6f807000080fa003400f9003200f90025
:104410004f03be004f02be004f01be004f00be0062
:084420003600f900004006001f
:020000040000fa
:104428001a08000000040000800000001a0c0000b8
:10443800ce00000080000000000e00008000000098
:1044480080000000000800001a0000008000000042
:044458000000000060
:020000040000fa
:08445c000040da000000fe0040
:00000001FF
